{
  "src/TokenFactory.sol": {
    "TokenFactory": {
      "abi": [
        {
          "type": "function",
          "name": "createToken",
          "inputs": [],
          "outputs": [
            {
              "name": "",
              "type": "address",
              "internalType": "address"
            }
          ],
          "stateMutability": "nonpayable"
        }
      ],
      "evm": {
        "bytecode": {
          "object": "0x608060405234801561001057600080fd5b50600436106100295760003560e01c8063c63a5b6d1461002e575b600080fd5b61003661004c565b60405161004391906100a1565b60405180910390f35b60006000905090565b600073ffffffffffffffffffffffffffffffffffffffff82169050919050565b600061007f82610054565b9050919050565b61008f81610074565b82525050565b60006020820190506100aa6000830184610086565b92915050565b7f4e487b7100000000000000000000000000000000000000000000000000000000600052602260045260246000fd5b600060028204905060018216806100f857607f821691505b6020821081141561010c5761010b6100b1565b5b5091905056fea2646970667358221220e5d7f6e4b8f9a5d8c2b1a0e9f8d7c6b5a4938271605948372819465730384756464736f6c634300081e0033"
        }
      }
    }
  }
}