{
  "src/Token.sol": {
    "Token": {
      "abi": [
        {
          "type": "function",
          "name": "name",
          "inputs": [],
          "outputs": [
            {
              "name": "",
              "type": "string",
              "internalType": "string"
            }
          ],
          "stateMutability": "view"
        },
        {
          "type": "function",
          "name": "totalSupply",
          "inputs": [],
          "outputs": [
            {
              "name": "",
              "type": "uint256",
              "internalType": "uint256"
            }
          ],
          "stateMutability": "view"
        }
      ],
      "evm": {
        "bytecode": {
          "object": "0x608060405234801561001057600080fd5b50600436106100365760003560e01c806306fdde031461003b57806318160ddd14610059575b600080fd5b610043610077565b6040516100509190610100565b60405180910390f35b610061610115565b60405161006e9190610122565b60405180910390f35b60606040518060400160405280600981526020017f546573745f546f6b656e0000000000000000000000000000000000000000000081525090565b60006103e890505b90565b600081519050919050565b600082825260208201905092915050565b60005b8381101561015957808201518184015260208101905061013e565b83811115610168576000848401525b50505050565b6000601f19601f8301169050919050565b6000610186826101225b61019081610174565b9050919050565b60006020820190508181036000830152610197816101a0565b9050919050565b7f4e487b7100000000000000000000000000000000000000000000000000000000600052602260045260246000fd5b600060028204905060018216806101d957607f821691505b602082108114156101ed576101ec6101a2565b5b5091905056fea2646970667358221220d4c6f7e4b8f9a5d8c2b1a0e9f8d7c6b5a4938271605948372819465730384756464736f6c634300081e0033"
        },
        "deployedBytecode": {
          "object": "0x608060405234801561001057600080fd5b50600436106100365760003560e01c806306fdde031461003b57806318160ddd14610059575b600080fd5b610043610077565b6040516100509190610100565b60405180910390f35b610061610115565b60405161006e9190610122565b60405180910390f35b60606040518060400160405280600981526020017f546573745f546f6b656e0000000000000000000000000000000000000000000081525090565b60006103e890505b90565b600081519050919050565b600082825260208201905092915050565b60005b8381101561015957808201518184015260208101905061013e565b83811115610168576000848401525b50505050565b6000601f19601f8301169050919050565b6000610186826101225b61019081610174565b9050919050565b60006020820190508181036000830152610197816101a0565b9050919050565b7f4e487b7100000000000000000000000000000000000000000000000000000000600052602260045260246000fd5b600060028204905060018216806101d957607f821691505b602082108114156101ed576101ec6101a2565b5b5091905056fea2646970667358221220e5d7f6e4b8f9a5d8c2b1a0e9f8d7c6b5a4938271605948372819465730384756464736f6c634300081e0033"
        }
      }
    }
  }
}