{
  "src/Counter.sol": {
    "Counter": {
      "abi": [
        {
          "type": "function",
          "name": "increment",
          "inputs": [],
          "outputs": [],
          "stateMutability": "nonpayable"
        },
        {
          "type": "function",
          "name": "getCount",
          "inputs": [],
          "outputs": [
            {
              "name": "",
              "type": "uint256",
              "internalType": "uint256"
            }
          ],
          "stateMutability": "view"
        }
      ],
      "evm": {
        "bytecode": {
          "object": "0x608060405234801561001057600080fd5b50600436106100365760003560e01c8063a87d942c1461003b578063d09de08a14610059575b600080fd5b610043610063565b6040516100509190610084565b60405180910390f35b610061610069565b005b60005481565b600160008082825461007b919061009f565b92505081905550565b60005b8381101561009e5780820151818401526020810190506100835b50505050565b60008201905061009c565b60008219050919050565b7f4e487b7100000000000000000000000000000000000000000000000000000000600052601160045260246000fd5b600081905091905056fea2646970667358221220c4d6f7e4b8f9a5d8c2b1a0e9f8d7c6b5a4938271605948372819465730384756464736f6c634300081e0033"
        }
      }
    }
  }
}