{"abi":[{"type":"function","name":"increment","inputs":[],"outputs":[],"stateMutability":"nonpayable"},{"type":"function","name":"number","inputs":[],"outputs":[{"name":"","type":"uint256","internalType":"uint256"}],"stateMutability":"view"}],"bytecode":{"object":"0x6080604052348015600e575f5ffd5b5060c180601a5f395ff3fe6080604052348015600e575f5ffd5b50600436106030575f3560e01c80638381f58a146034578063d09de08a14604d575b5f5ffd5b603b5f5481565b60405190815260200160405180910390f35b60536055565b005b5f805490806061836068565b9190505550565b5f60018201608457634e487b7160e01b5f52601160045260245ffd5b506001019056fea264697066735822122074300f82bc4b1d0eec22668b0edf09603d979df755b8315a9a2493d4f5c293c364736f6c634300081e0033","linkReferences":{}},"methodIdentifiers":{"increment()":"d09de08a","number()":"8381f58a"},"id":21}